:100000000C942E000C944B000C944B000C94CB01E0
:100010000C944B000C944B000C944B000C94F0018E
:100020000C944B000C944B000C944B000C944B0024
:100030000C944B000C944B000C944B000C944B0014
:100040000C944B000C944B000C944B000C944B0004
:100050000C944B000C944B000C944B0011241FBECD
:10006000CFEFD4E0DEBFCDBF11E0A0E0B1E0ECEA1D
:10007000F7E002C005900D92A430B107D9F723E054
:10008000A4E0B1E001C01D92AF32B207E1F70E94D7
:1000900014020C94D4030C94000080EC8093E400D0
:1000A00087EB8093E50087E08093E6008FE0809304
:1000B000E7000895CF93DF93CDB7DEB764970FB60F
:1000C000F894DEBF0FBECDBF90ED980F9A3090F53B
:1000D00021E535E13A83298320E131E03C832B831C
:1000E00021EE31E13E832D8321EB31E138872F83EF
:1000F00020EB35E03A87298721EB34E13C872B87D9
:1001000021EF34E13E872D8720E131E1388B2F87C5
:1001100021EF35E13A8B298B20EB35E13C8B2B8BA2
:10012000E82FF0E0F097EE0FFF1FEC0FFD1F81812D
:10013000928102C080E090E064960FB6F894DEBF32
:100140000FBECDBFDF91CF910895CF93DF93EB0129
:1001500066307105D8F50E945A00FE01F595E795C5
:10016000C0FD11C0592F52955F70492F4F709C01EF
:10017000329522952F7023273F702327322F3F700F
:100180008F7090EF10C0592F507F9C0132952295AF
:100190002F7023273F702327422F407F382F307F37
:1001A0008295807F9FE0FF27E451FF4F2081292324
:1001B000252B208325812923242B25832285292370
:1001C000232B228727859223892B8787DF91CF9145
:1001D00008954F925F926F927F928F929F92AF920B
:1001E000BF92CF92DF92EF92FF920F931F93CF9324
:1001F000DF932B013C0199232CF42FEF421A520A72
:10020000620A720A759467945794479453014201A5
:1002100022E0421651046104710418F1C62FD72F51
:10022000182F092F60FF2FC0C12CD12C76016894A4
:10023000C1F80CC06C2F7D2F812F902FA701960144
:100240000E945203672B682B692BF9F08FEFC81AB5
:10025000D80AE80AF80A8C149D04AE04BF0450F7CB
:1002600005C0C12CD12C76016894C1F82FEF421A39
:10027000520A620A720A81E0C414D504E604F70443
:1002800029F080E003C080E001C080E0DF91CF91E1
:100290001F910F91FF90EF90DF90CF90BF90AF90A4
:1002A0009F908F907F906F905F904F900895CF9226
:1002B000DF92EF92FF920F931F93CF93DF9300D0C3
:1002C000CDB7DEB76B017C018A01509309014093E1
:1002D000080124E630E040E050E00E9474032AE088
:1002E00030E040E050E00E947403B80180E3820FE8
:1002F0000E94A5001A82198289819A81883E9340C2
:1003000054F489819A8101969A83898389819A819B
:10031000883E9340B4F300910801109109010F5FEA
:100320001F4F1093090100930801C701B6012AE08D
:1003300030E040E050E00E947403862FB801805DF9
:100340000E94A5000F900F90DF91CF911F910F9108
:10035000FF90EF90DF90CF900895EC01C12CD12C4D
:100360007601C394C701B6010E94E900882369F0B1
:100370008AE091E00E940B03AE01C701B6010E9422
:1003800057018AE091E00E942F038FEFC81AD80A24
:10039000E80AF80AE7CF1F920F920FB60F921124C6
:1003A0002F933F934F935F936F937F938F939F937D
:1003B000AF93BF93EF93FF931F9B0E94F202FF91B5
:1003C000EF91BF91AF919F918F917F916F915F91CD
:1003D0004F913F912F910F900FBE0F901F90189546
:1003E0001F920F920FB60F9211242F933F934F93AA
:1003F0005F936F937F938F939F93AF93BF93EF938D
:10040000FF930E94F202FF91EF91BF91AF919F91F4
:100410008F917F916F915F914F913F912F910F90AD
:100420000FBE0F901F901895E1E6F0E080E8808302
:1004300010820E944D0060E070E08DEA91E00E9421
:100440005C0283E090E00E94AD01DC0115961C92F5
:100450001E921497DB01ED91FC911197309721F4D6
:100460008D939C930895F9012481358121153105DF
:10047000D1F7958384830895CF93DF9300D0CDB7D0
:10048000DEB79A83898380910001909101010696DD
:100490000E949303892B59F489819A8190930101D9
:1004A0008093000161E070E006960E94B3030F9014
:1004B0000F90DF91CF910895CF93DF9300D0CDB708
:1004C000DEB7F8942091040130910501232B71F5DA
:1004D00028EE31E03093800120937F0125E532E062
:1004E0003093ED012093EC0122EC32E030935A027C
:1004F000209359021092C7021092C60220E825B933
:1005000020936C002DBB2DE02093810022E02093EE
:100510006F0027E8209388001092850010928400D5
:1005200021E030E030930501209304012091020185
:10053000309103013A832983232BA9F0E981FA81C1
:10054000448155815093030140930201918380833C
:100550007383628315821482CF0106960E949303EF
:10056000019749F501C0FFCF7894A0910001B091A7
:100570000101ED91FC91119712968D919C91139729
:100580000995F89462E071E0809100019091010179
:100590000E9425028091060190910701009751F079
:1005A000FC012481358130930701209306010E94CC
:1005B0003C0201C0FFCFE981FA81369689819A8198
:1005C00087599F4F918B808B938B828B66E071E074
:1005D00089819A810E94250278940F900F90DF9173
:1005E000CF91089566E071E0809100019091010142
:1005F0000E9425028091060190910701009751F019
:10060000FC012481358130930701209306010E946B
:100610003C020895FFCFFC0120813181232B29F476
:1006200021E030E0318320830895BC016E5F7F4F6D
:1006300080910001909101010E94250280910601A4
:1006400090910701009751F0FC012481358130938E
:100650000701209306010E943C020895FFCFCF932B
:10066000DF93FC0122813381232BB1F0EC0166E0A2
:1006700071E080910001909101010E9425028A8120
:100680009B81009741F0FC01248135813B832A83C3
:100690000E943C0204C0FFCFFC0111821082DF9156
:1006A000CF910895A1E21A2EAA1BBB1BFD010DC01C
:1006B000AA1FBB1FEE1FFF1FA217B307E407F50712
:1006C00020F0A21BB30BE40BF50B661F771F881FEE
:1006D000991F1A9469F760957095809590959B0184
:1006E000AC01BD01CF010895052E97FB1EF40094C7
:1006F0000E948B0357FD07D00E94520307FC03D0D2
:100700004EF40C948B0350954095309521953F4FB6
:100710004F4F5F4F089590958095709561957F4FED
:100720008F4F9F4F0895DC012D923D924D925D9227
:100730006D927D928D929D92AD92BD92CD92DD9201
:10074000ED92FD920D931D93CD93DD93FF91EF916B
:100750008DB78D938EB78D938FB78D93ED93FD935A
:10076000882799270994DC01CB0181309105811DEF
:100770002D903D904D905D906D907D908D909D90D1
:10078000AD90BD90CD90DD90ED90FD900D911D91BF
:10079000CD91DD91ED91FD910D90F894FEBF0FBECE
:0C07A000EDBFED91FD910994F894FFCF9E
:0407AC000E017B01BE
:00000001FF
