:100000000C942E000C944B000C944B000C9450025A
:100010000C944B000C944B000C944B000C944B0034
:100020000C944B000C944B000C944B000C944B0024
:100030000C944B000C944B000C944B000C944B0014
:100040000C944B000C944B000C944B000C944B0004
:100050000C944B000C944B000C944B0011241FBECD
:10006000CFEFD4E0DEBFCDBF11E0A0E0B1E0E2E130
:10007000F6E002C005900D92A430B107D9F723E055
:10008000A4E0B1E001C01D92A932B207E1F70E94DD
:1000900074020C9407030C940000DC0115961C926A
:1000A0001E921497DB01ED91FC911197309719F492
:1000B0008D939C930895248135812115310511F08C
:1000C000F901F9CF958384830895CF93DF9300D00E
:1000D000CDB7DEB79A8389838091000190910101A9
:1000E00006960E94C602892B59F489819A819093C1
:1000F00001018093000161E070E006960E94E60233
:100100000F900F90DF91CF910895CF93DF9300D0A0
:10011000CDB7DEB7F8942091040130910501232B6F
:1001200009F522EE31E030937A01209379012FE432
:1001300032E03093E7012093E6012CEB32E030937C
:100140005402209353021092C1021092C00220E880
:1001500025B920936C002DBB21E030E030930501E0
:100160002093040120910201309103013A832983F5
:1001700021153105A1F0F901248135813093030166
:10018000209302019183808373836283158214829A
:10019000CF0106960E94C602019749F501C0FFCF24
:1001A0007894A0910001B0910101ED91FC9111971B
:1001B00012968D919C9113970995F89462E071E0E5
:1001C00080910001909101010E944D0080910601F3
:1001D00090910701009751F0FC0124813581309303
:1001E0000701209306010E94650001C0FFCFE9814D
:1001F000FA81369689819A8187599F4F918B808B9E
:10020000938B828B66E071E089819A810E944D0018
:1002100078940F900F90DF91CF91089566E071E090
:1002200080910001909101010E944D008091060192
:1002300090910701009749F0FC01248135813093AA
:100240000701209306010C946500FFCF08950895DF
:1002500080EC8093E40087EB8093E50087E0809357
:10026000E6008FE08093E7000895CF93DF93CDB74A
:10027000DEB764970FB6F894DEBF0FBECDBF90ED2A
:10028000980F9A3090F521E535E13A83298320E1F2
:1002900031E03C832B8321EE31E13E832D8321EB42
:1002A00031E138872F8320EB35E03A87298721EB2E
:1002B00034E13C872B8721EF34E13E872D8720E115
:1002C00031E1388B2F8721EF35E13A8B298B20EBF9
:1002D00035E13C8B2B8BE82FF0E0F097EE0FFF1F02
:1002E000EC0FFD1F8181928102C080E090E0649656
:1002F0000FB6F894DEBF0FBECDBFDF91CF9108954A
:10030000CF93DF936630710590F5EB010E943501C4
:10031000FE01F595E7959C0144E0369527954A95B1
:10032000E1F7C0FD09C0492F42954F70392F3F704A
:100330002F708F7090EF09C0492F407F322F307F90
:10034000282F207F8295807F9FE0E451FF4F5081CE
:100350005923452B408345814923342B35833285EE
:100360003923232B228727859223892B8787DF91A7
:10037000CF9108954F925F926F927F928F929F924A
:10038000AF92BF92CF92DF92EF92FF922B013C018E
:1003900022E030E040E050E00E94A70249015A010B
:1003A00082E0C82ED12CE12CF12C8C149D04AE04DB
:1003B000BF0480F0C301B201A70196010E9485022B
:1003C000672B682B692B89F08FEFC81AD80AE80AC7
:1003D000F80AEBCF8FEF881A980AA80AB80A81E0CA
:1003E0008C149D04AE04BF0409F080E0FF90EF90F0
:1003F000DF90CF90BF90AF909F908F907F906F9045
:100400005F904F9008958F929F92AF92BF92CF923C
:10041000DF92EF92FF92CF93DF934B015C01EA01F1
:1004200024E630E040E050E00E94A7022AE0C22E1D
:10043000D12CE12CF12CA70196010E94A702BE014C
:1004400080E3820F0E9480012196C501B401A701BB
:1004500096010E94A702862FBE01805DDF91CF9199
:10046000FF90EF90DF90CF90BF90AF909F908F90D4
:100470000C948001EC01C12CD12C7601C394C701EE
:10048000B6010E94BA01882329F0AE01C701B60166
:100490000E9403028FEFC81AD80AE80AF80AEFCFC1
:1004A0001F920F920FB60F9211242F933F934F93E9
:1004B0005F936F937F938F939F93AF93BF93EF93CC
:1004C000FF930E940E01FF91EF91BF91AF919F9119
:1004D0008F917F916F915F914F913F912F910F90ED
:1004E0000FBE0F901F901895E1E6F0E080E8808342
:1004F00010820E94280160E070E08AE392E00E948E
:10050000850083E090E00E943A02A1E21A2EAA1B25
:10051000BB1BFD010DC0AA1FBB1FEE1FFF1FA217B3
:10052000B307E407F50720F0A21BB30BE40BF50BB0
:10053000661F771F881F991F1A9469F76095709539
:10054000809590959B01AC01BD01CF010895052ECA
:1005500097FB1EF400940E94BE0257FD07D00E9434
:10056000850207FC03D04EF40C94BE0250954095D2
:10057000309521953F4F4F4F5F4F0895909580954F
:10058000709561957F4F8F4F9F4F0895DC012D929D
:100590003D924D925D926D927D928D929D92AD9223
:1005A000BD92CD92DD92ED92FD920D931D93CD9370
:1005B000DD93FF91EF918DB78D938EB78D938FB7AC
:1005C0008D93ED93FD93882799270994DC01CB0146
:1005D00081309105811D2D903D904D905D906D90E5
:1005E0007D908D909D90AD90BD90CD90DD90ED90E3
:1005F000FD900D911D91CD91DD91ED91FD910D90AD
:10060000F894FEBF0FBEEDBFED91FD910994F894F3
:02061000FFCF1A
:040612000801750165
:00000001FF
